{
  "contractName": "Election",
  "abi": [
    {
      "inputs": [],
      "payable": false,
      "stateMutability": "nonpayable",
      "type": "constructor"
    },
    {
      "constant": true,
      "inputs": [],
      "name": "candidateCount",
      "outputs": [
        {
          "internalType": "uint256",
          "name": "",
          "type": "uint256"
        }
      ],
      "payable": false,
      "stateMutability": "view",
      "type": "function"
    },
    {
      "constant": true,
      "inputs": [],
      "name": "voterCount",
      "outputs": [
        {
          "internalType": "uint256",
          "name": "",
          "type": "uint256"
        }
      ],
      "payable": false,
      "stateMutability": "view",
      "type": "function"
    },
    {
      "constant": false,
      "inputs": [
        {
          "internalType": "string",
          "name": "_name",
          "type": "string"
        },
        {
          "internalType": "string",
          "name": "_party",
          "type": "string"
        }
      ],
      "name": "addCandidate",
      "outputs": [],
      "payable": false,
      "stateMutability": "nonpayable",
      "type": "function"
    },
    {
      "constant": true,
      "inputs": [
        {
          "internalType": "uint256",
          "name": "_candidateId",
          "type": "uint256"
        }
      ],
      "name": "getCandidate",
      "outputs": [
        {
          "internalType": "string",
          "name": "_candidateName",
          "type": "string"
        },
        {
          "internalType": "string",
          "name": "_partyName",
          "type": "string"
        },
        {
          "internalType": "uint256",
          "name": "_voteCount",
          "type": "uint256"
        }
      ],
      "payable": false,
      "stateMutability": "view",
      "type": "function"
    },
    {
      "constant": false,
      "inputs": [
        {
          "internalType": "uint256",
          "name": "_candidateId",
          "type": "uint256"
        }
      ],
      "name": "vote",
      "outputs": [],
      "payable": false,
      "stateMutability": "nonpayable",
      "type": "function"
    }
  ],
  "bytecode": "0x608060405234801561001057600080fd5b50336000806101000a81548173ffffffffffffffffffffffffffffffffffffffff021916908373ffffffffffffffffffffffffffffffffffffffff160217905550600060018190555060006002819055506100db6040518060400160405280600481526020017f4e4f5441000000000000000000000000000000000000000000000000000000008152506040518060400160405280600481526020017f4e4f5441000000000000000000000000000000000000000000000000000000008152506100e060201b60201c565b6102e7565b6000809054906101000a900473ffffffffffffffffffffffffffffffffffffffff1673ffffffffffffffffffffffffffffffffffffffff163373ffffffffffffffffffffffffffffffffffffffff16146101a2576040517f08c379a000000000000000000000000000000000000000000000000000000000815260040180806020018281038252601f8152602001807f4f6e6c792061646d696e2068617320746869732070726976696c65676521210081525060200191505060405180910390fd5b600260008154809291906001019190505550604051806080016040528060025481526020018381526020018281526020016000815250600460006002548152602001908152602001600020600082015181600001556020820151816001019080519060200190610213929190610242565b506040820151816002019080519060200190610230929190610242565b50606082015181600301559050505050565b828054600181600116156101000203166002900490600052602060002090601f016020900481019282601f1061028357805160ff19168380011785556102b1565b828001600101855582156102b1579182015b828111156102b0578251825591602001919060010190610295565b5b5090506102be91906102c2565b5090565b6102e491905b808211156102e05760008160009055506001016102c8565b5090565b90565b6108c6806102f66000396000f3fe608060405234801561001057600080fd5b50600436106100575760003560e01c80630121b93f1461005c57806326541b561461008a57806335b8e820146101dc57806342169e48146102f6578063a9a981a314610314575b600080fd5b6100886004803603602081101561007257600080fd5b8101908080359060200190929190505050610332565b005b6101da600480360360408110156100a057600080fd5b81019080803590602001906401000000008111156100bd57600080fd5b8201836020820111156100cf57600080fd5b803590602001918460018302840111640100000000831117156100f157600080fd5b91908080601f016020809104026020016040519081016040528093929190818152602001838380828437600081840152601f19601f8201169050808301925050505050505091929192908035906020019064010000000081111561015457600080fd5b82018360208201111561016657600080fd5b8035906020019184600183028401116401000000008311171561018857600080fd5b91908080601f016020809104026020016040519081016040528093929190818152602001838380828437600081840152601f19601f8201169050808301925050505050505091929192905050506104f7565b005b610208600480360360208110156101f257600080fd5b8101908080359060200190929190505050610659565b604051808060200180602001848152602001838103835286818151815260200191508051906020019080838360005b83811015610252578082015181840152602081019050610237565b50505050905090810190601f16801561027f5780820380516001836020036101000a031916815260200191505b50838103825285818151815260200191508051906020019080838360005b838110156102b857808201518184015260208101905061029d565b50505050905090810190601f1680156102e55780820380516001836020036101000a031916815260200191505b509550505050505060405180910390f35b6102fe6107e0565b6040518082815260200191505060405180910390f35b61031c6107e6565b6040518082815260200191505060405180910390f35b600360003373ffffffffffffffffffffffffffffffffffffffff1673ffffffffffffffffffffffffffffffffffffffff16815260200190815260200160002060009054906101000a900460ff16156103f2576040517f08c379a00000000000000000000000000000000000000000000000000000000081526004018080602001828103825260188152602001807f55736572206861766520766f746564206265666f72652121000000000000000081525060200191505060405180910390fd5b60008111801561040457506002548111155b610476576040517f08c379a00000000000000000000000000000000000000000000000000000000081526004018080602001828103825260118152602001807f496e76616c69642063616e64696461746500000000000000000000000000000081525060200191505060405180910390fd5b6001600360003373ffffffffffffffffffffffffffffffffffffffff1673ffffffffffffffffffffffffffffffffffffffff16815260200190815260200160002060006101000a81548160ff021916908315150217905550600460008281526020019081526020016000206003016000815480929190600101919050555050565b6000809054906101000a900473ffffffffffffffffffffffffffffffffffffffff1673ffffffffffffffffffffffffffffffffffffffff163373ffffffffffffffffffffffffffffffffffffffff16146105b9576040517f08c379a000000000000000000000000000000000000000000000000000000000815260040180806020018281038252601f8152602001807f4f6e6c792061646d696e2068617320746869732070726976696c65676521210081525060200191505060405180910390fd5b60026000815480929190600101919050555060405180608001604052806002548152602001838152602001828152602001600081525060046000600254815260200190815260200160002060008201518160000155602082015181600101908051906020019061062a9291906107ec565b5060408201518160020190805190602001906106479291906107ec565b50606082015181600301559050505050565b6060806000600460008581526020019081526020016000206001018054600181600116156101000203166002900480601f0160208091040260200160405190810160405280929190818152602001828054600181600116156101000203166002900480156107085780601f106106dd57610100808354040283529160200191610708565b820191906000526020600020905b8154815290600101906020018083116106eb57829003601f168201915b50505050509250600460008581526020019081526020016000206002018054600181600116156101000203166002900480601f0160208091040260200160405190810160405280929190818152602001828054600181600116156101000203166002900480156107b95780601f1061078e576101008083540402835291602001916107b9565b820191906000526020600020905b81548152906001019060200180831161079c57829003601f168201915b50505050509150600460008581526020019081526020016000206003015490509193909250565b60015481565b60025481565b828054600181600116156101000203166002900490600052602060002090601f016020900481019282601f1061082d57805160ff191683800117855561085b565b8280016001018555821561085b579182015b8281111561085a57825182559160200191906001019061083f565b5b509050610868919061086c565b5090565b61088e91905b8082111561088a576000816000905550600101610872565b5090565b9056fea265627a7a7231582086cc6534ac8906192963f516832569242db2fdd5532bcf8d19ac0ea389e2774664736f6c63430005100032",
  "source": "pragma solidity >=0.4.2;\r\n\r\ncontract Election {\r\n    struct Candidate {\r\n        uint256 candidateId;\r\n        string candidateName;\r\n        string partyName;\r\n        uint256 voteCount;\r\n    }\r\n\r\n    address admin;\r\n\r\n    uint256 public voterCount;\r\n    uint256 public candidateCount;\r\n\r\n    mapping(address => bool) hasVoted;\r\n    mapping(uint256 => Candidate) candidates;\r\n\r\n    constructor() public {\r\n        admin = msg.sender;\r\n        voterCount = 0;\r\n        candidateCount = 0;\r\n        addCandidate(\"NOTA\", \"NOTA\");\r\n    }\r\n\r\n    function addCandidate(string memory _name, string memory _party) public {\r\n        require(msg.sender == admin, \"Only admin has this privilege!!\");\r\n        candidateCount++;\r\n        candidates[candidateCount] = Candidate(\r\n            candidateCount,\r\n            _name,\r\n            _party,\r\n            0\r\n        );\r\n    }\r\n\r\n    function getCandidate(uint256 _candidateId)\r\n        public\r\n        view\r\n        returns (\r\n            string memory _candidateName,\r\n            string memory _partyName,\r\n            uint256 _voteCount\r\n        )\r\n    {\r\n        _candidateName = candidates[_candidateId].candidateName;\r\n        _partyName = candidates[_candidateId].partyName;\r\n        _voteCount = candidates[_candidateId].voteCount;\r\n    }\r\n\r\n    function vote(uint256 _candidateId) public {\r\n        require(!hasVoted[msg.sender], \"User have voted before!!\");\r\n        require(\r\n            _candidateId > 0 && _candidateId <= candidateCount,\r\n            \"Invalid candidate\"\r\n        );\r\n        hasVoted[msg.sender] = true;\r\n        candidates[_candidateId].voteCount++;\r\n    }\r\n}\r\n",
  "sourcePath": "F:\\Projects\\ISAA_Project\\Implementation\\Temp\\contracts\\Election.sol",
  "compiler": {
    "name": "solc",
    "version": "0.5.16+commit.9c3226ce.Emscripten.clang"
  },
  "schemaVersion": "3.4.3",
  "updatedAt": "2021-11-07T17:39:47.143Z",
  "devdoc": {
    "methods": {}
  },
  "userdoc": {
    "methods": {}
  }
}