{
  "contractName": "Election",
  "abi": [
    {
      "inputs": [],
      "payable": false,
      "stateMutability": "nonpayable",
      "type": "constructor"
    },
    {
      "constant": true,
      "inputs": [],
      "name": "candidateCount",
      "outputs": [
        {
          "internalType": "uint256",
          "name": "",
          "type": "uint256"
        }
      ],
      "payable": false,
      "stateMutability": "view",
      "type": "function"
    },
    {
      "constant": false,
      "inputs": [
        {
          "internalType": "string",
          "name": "_name",
          "type": "string"
        },
        {
          "internalType": "string",
          "name": "_party",
          "type": "string"
        }
      ],
      "name": "addCandidate",
      "outputs": [],
      "payable": false,
      "stateMutability": "nonpayable",
      "type": "function"
    },
    {
      "constant": true,
      "inputs": [
        {
          "internalType": "string",
          "name": "_candidateId",
          "type": "string"
        }
      ],
      "name": "getCandidate",
      "outputs": [
        {
          "internalType": "string",
          "name": "_candidateName",
          "type": "string"
        },
        {
          "internalType": "string",
          "name": "_partyName",
          "type": "string"
        },
        {
          "internalType": "uint256",
          "name": "_voteCount",
          "type": "uint256"
        }
      ],
      "payable": false,
      "stateMutability": "view",
      "type": "function"
    },
    {
      "constant": false,
      "inputs": [
        {
          "internalType": "string",
          "name": "_candidateId",
          "type": "string"
        }
      ],
      "name": "vote",
      "outputs": [],
      "payable": false,
      "stateMutability": "nonpayable",
      "type": "function"
    },
    {
      "constant": true,
      "inputs": [],
      "name": "doneVoting",
      "outputs": [
        {
          "internalType": "bool",
          "name": "_voted",
          "type": "bool"
        }
      ],
      "payable": false,
      "stateMutability": "view",
      "type": "function"
    }
  ],
  "bytecode": "0x60806040523480156200001157600080fd5b50336000806101000a81548173ffffffffffffffffffffffffffffffffffffffff021916908373ffffffffffffffffffffffffffffffffffffffff1602179055506000600181905550620000d66040518060400160405280600481526020017f4e4f5441000000000000000000000000000000000000000000000000000000008152506040518060400160405280600481526020017f4e4f5441000000000000000000000000000000000000000000000000000000008152506200015560201b60201c565b6001600260008060009054906101000a900473ffffffffffffffffffffffffffffffffffffffff1673ffffffffffffffffffffffffffffffffffffffff1673ffffffffffffffffffffffffffffffffffffffff16815260200190815260200160002060006101000a81548160ff02191690831515021790555062000524565b6000809054906101000a900473ffffffffffffffffffffffffffffffffffffffff1673ffffffffffffffffffffffffffffffffffffffff163373ffffffffffffffffffffffffffffffffffffffff161462000218576040517f08c379a000000000000000000000000000000000000000000000000000000000815260040180806020018281038252601f8152602001807f4f6e6c792061646d696e2068617320746869732070726976696c65676521210081525060200191505060405180910390fd5b60016000815480929190600101919050555060606200023f6001546200033d60201b60201c565b9050604051806080016040528082815260200184815260200183815260200160008152506003826040518082805190602001908083835b602083106200029b578051825260208201915060208101905060208303925062000276565b6001836020036101000a03801982511681845116808217855250505050505090500191505090815260200160405180910390206000820151816000019080519060200190620002ec92919062000475565b5060208201518160010190805190602001906200030b92919062000475565b5060408201518160020190805190602001906200032a92919062000475565b5060608201518160030155905050505050565b6060600082141562000387576040518060400160405280600181526020017f3000000000000000000000000000000000000000000000000000000000000000815250905062000470565b600082905060005b60008214620003b4578080600101915050600a8281620003ab57fe5b0491506200038f565b6060816040519080825280601f01601f191660200182016040528015620003ea5781602001600182028038833980820191505090505b50905060008290508593505b600084146200046857600a84816200040a57fe5b0660300160f81b828260019003925082815181106200042557fe5b60200101907effffffffffffffffffffffffffffffffffffffffffffffffffffffffffffff1916908160001a905350600a84816200045f57fe5b049350620003f6565b819450505050505b919050565b828054600181600116156101000203166002900490600052602060002090601f016020900481019282601f10620004b857805160ff1916838001178555620004e9565b82800160010185558215620004e9579182015b82811115620004e8578251825591602001919060010190620004cb565b5b509050620004f89190620004fc565b5090565b6200052191905b808211156200051d57600081600090555060010162000503565b5090565b90565b610d7080620005346000396000f3fe608060405234801561001057600080fd5b50600436106100575760003560e01c806326541b561461005c5780634491c0db146101ae578063a9a981a3146101d0578063f276669d146101ee578063fc36e15b14610395575b600080fd5b6101ac6004803603604081101561007257600080fd5b810190808035906020019064010000000081111561008f57600080fd5b8201836020820111156100a157600080fd5b803590602001918460018302840111640100000000831117156100c357600080fd5b91908080601f016020809104026020016040519081016040528093929190818152602001838380828437600081840152601f19601f8201169050808301925050505050505091929192908035906020019064010000000081111561012657600080fd5b82018360208201111561013857600080fd5b8035906020019184600183028401116401000000008311171561015a57600080fd5b91908080601f016020809104026020016040519081016040528093929190818152602001838380828437600081840152601f19601f820116905080830192505050505050509192919290505050610450565b005b6101b6610627565b604051808215151515815260200191505060405180910390f35b6101d861067b565b6040518082815260200191505060405180910390f35b6102a76004803603602081101561020457600080fd5b810190808035906020019064010000000081111561022157600080fd5b82018360208201111561023357600080fd5b8035906020019184600183028401116401000000008311171561025557600080fd5b91908080601f016020809104026020016040519081016040528093929190818152602001838380828437600081840152601f19601f820116905080830192505050505050509192919290505050610681565b604051808060200180602001848152602001838103835286818151815260200191508051906020019080838360005b838110156102f15780820151818401526020810190506102d6565b50505050905090810190601f16801561031e5780820380516001836020036101000a031916815260200191505b50838103825285818151815260200191508051906020019080838360005b8381101561035757808201518184015260208101905061033c565b50505050905090810190601f1680156103845780820380516001836020036101000a031916815260200191505b509550505050505060405180910390f35b61044e600480360360208110156103ab57600080fd5b81019080803590602001906401000000008111156103c857600080fd5b8201836020820111156103da57600080fd5b803590602001918460018302840111640100000000831117156103fc57600080fd5b91908080601f016020809104026020016040519081016040528093929190818152602001838380828437600081840152601f19601f82011690508083019250505050505050919291929050505061090a565b005b6000809054906101000a900473ffffffffffffffffffffffffffffffffffffffff1673ffffffffffffffffffffffffffffffffffffffff163373ffffffffffffffffffffffffffffffffffffffff1614610512576040517f08c379a000000000000000000000000000000000000000000000000000000000815260040180806020018281038252601f8152602001807f4f6e6c792061646d696e2068617320746869732070726976696c65676521210081525060200191505060405180910390fd5b6001600081548092919060010191905055506060610531600154610b46565b9050604051806080016040528082815260200184815260200183815260200160008152506003826040518082805190602001908083835b6020831061058b5780518252602082019150602081019050602083039250610568565b6001836020036101000a038019825116818451168082178552505050505050905001915050908152602001604051809103902060008201518160000190805190602001906105da929190610c73565b5060208201518160010190805190602001906105f7929190610c73565b506040820151816002019080519060200190610614929190610c73565b5060608201518160030155905050505050565b6000600260003373ffffffffffffffffffffffffffffffffffffffff1673ffffffffffffffffffffffffffffffffffffffff16815260200190815260200160002060009054906101000a900460ff16905090565b60015481565b60608060006003846040518082805190602001908083835b602083106106bc5780518252602082019150602081019050602083039250610699565b6001836020036101000a03801982511681845116808217855250505050505090500191505090815260200160405180910390206001018054600181600116156101000203166002900480601f0160208091040260200160405190810160405280929190818152602001828054600181600116156101000203166002900480156107865780601f1061075b57610100808354040283529160200191610786565b820191906000526020600020905b81548152906001019060200180831161076957829003601f168201915b505050505092506003846040518082805190602001908083835b602083106107c357805182526020820191506020810190506020830392506107a0565b6001836020036101000a03801982511681845116808217855250505050505090500191505090815260200160405180910390206002018054600181600116156101000203166002900480601f01602080910402602001604051908101604052809291908181526020018280546001816001161561010002031660029004801561088d5780601f106108625761010080835404028352916020019161088d565b820191906000526020600020905b81548152906001019060200180831161087057829003601f168201915b505050505091506003846040518082805190602001908083835b602083106108ca57805182526020820191506020810190506020830392506108a7565b6001836020036101000a03801982511681845116808217855250505050505090500191505090815260200160405180910390206003015490509193909250565b6000809054906101000a900473ffffffffffffffffffffffffffffffffffffffff1673ffffffffffffffffffffffffffffffffffffffff163373ffffffffffffffffffffffffffffffffffffffff1614156109b0576040517f08c379a0000000000000000000000000000000000000000000000000000000008152600401808060200182810382526023815260200180610d196023913960400191505060405180910390fd5b600260003373ffffffffffffffffffffffffffffffffffffffff1673ffffffffffffffffffffffffffffffffffffffff16815260200190815260200160002060009054906101000a900460ff1615610a70576040517f08c379a00000000000000000000000000000000000000000000000000000000081526004018080602001828103825260188152602001807f55736572206861766520766f746564206265666f72652121000000000000000081525060200191505060405180910390fd5b6001600260003373ffffffffffffffffffffffffffffffffffffffff1673ffffffffffffffffffffffffffffffffffffffff16815260200190815260200160002060006101000a81548160ff02191690831515021790555060016003826040518082805190602001908083835b60208310610b005780518252602082019150602081019050602083039250610add565b6001836020036101000a03801982511681845116808217855250505050505090500191505090815260200160405180910390206003016000828254019250508190555050565b60606000821415610b8e576040518060400160405280600181526020017f30000000000000000000000000000000000000000000000000000000000000008152509050610c6e565b600082905060005b60008214610bb8578080600101915050600a8281610bb057fe5b049150610b96565b6060816040519080825280601f01601f191660200182016040528015610bed5781602001600182028038833980820191505090505b50905060008290508593505b60008414610c6657600a8481610c0b57fe5b0660300160f81b82826001900392508281518110610c2557fe5b60200101907effffffffffffffffffffffffffffffffffffffffffffffffffffffffffffff1916908160001a905350600a8481610c5e57fe5b049350610bf9565b819450505050505b919050565b828054600181600116156101000203166002900490600052602060002090601f016020900481019282601f10610cb457805160ff1916838001178555610ce2565b82800160010185558215610ce2579182015b82811115610ce1578251825591602001919060010190610cc6565b5b509050610cef9190610cf3565b5090565b610d1591905b80821115610d11576000816000905550600101610cf9565b5090565b9056fe41646d696e20646f65736e7420686176652074686520726967687420746f20766f7465a265627a7a72315820ab9a7156a9e6b9348830080ac6644d6f44ddb9a57222579cf0545a61147daa5d64736f6c63430005100032",
  "source": "pragma solidity >=0.4.2;\r\n\r\ncontract Election {\r\n    struct Candidate {\r\n        string candidateId;\r\n        string candidateName;\r\n        string partyName;\r\n        uint256 voteCount;\r\n    }\r\n\r\n    address admin;\r\n\r\n    uint256 public candidateCount;\r\n\r\n    mapping(address => bool) hasVoted;\r\n    mapping(string => Candidate) candidates;\r\n\r\n    constructor() public {\r\n        admin = msg.sender;\r\n        candidateCount = 0;\r\n        addCandidate(\"NOTA\", \"NOTA\");\r\n        hasVoted[admin] = true;\r\n    }\r\n\r\n    function uint2str(uint256 _i) internal pure returns (string memory str) {\r\n        if (_i == 0) {\r\n            return \"0\";\r\n        }\r\n        uint256 j = _i;\r\n        uint256 length;\r\n        while (j != 0) {\r\n            length++;\r\n            j /= 10;\r\n        }\r\n        bytes memory bstr = new bytes(length);\r\n        uint256 k = length;\r\n        j = _i;\r\n        while (j != 0) {\r\n            bstr[--k] = bytes1(uint8(48 + (j % 10)));\r\n            j /= 10;\r\n        }\r\n        str = string(bstr);\r\n    }\r\n\r\n    function addCandidate(string memory _name, string memory _party) public {\r\n        require(msg.sender == admin, \"Only admin has this privilege!!\");\r\n        candidateCount++;\r\n        string memory candidateId = uint2str(candidateCount);\r\n        candidates[candidateId] = Candidate(candidateId, _name, _party, 0);\r\n    }\r\n\r\n    function getCandidate(string memory _candidateId)\r\n        public\r\n        view\r\n        returns (\r\n            string memory _candidateName,\r\n            string memory _partyName,\r\n            uint256 _voteCount\r\n        )\r\n    {\r\n        _candidateName = candidates[_candidateId].candidateName;\r\n        _partyName = candidates[_candidateId].partyName;\r\n        _voteCount = candidates[_candidateId].voteCount;\r\n    }\r\n\r\n    function vote(string memory _candidateId) public {\r\n        require(msg.sender != admin, \"Admin doesnt have the right to vote\");\r\n        require(!hasVoted[msg.sender], \"User have voted before!!\");\r\n        hasVoted[msg.sender] = true;\r\n        candidates[_candidateId].voteCount += 1;\r\n    }\r\n\r\n    function doneVoting() public view returns (bool _voted) {\r\n        _voted = hasVoted[msg.sender];\r\n    }\r\n}\r\n",
  "sourcePath": "F:\\Projects\\ISA_Project\\Implementation\\Temp\\contracts\\Election.sol",
  "compiler": {
    "name": "solc",
    "version": "0.5.16+commit.9c3226ce.Emscripten.clang"
  },
  "schemaVersion": "3.4.3",
  "updatedAt": "2021-11-08T21:41:11.060Z",
  "networkType": "ethereum",
  "devdoc": {
    "methods": {}
  },
  "userdoc": {
    "methods": {}
  }
}