{
  "contractName": "Election",
  "abi": [
    {
      "inputs": [],
      "payable": false,
      "stateMutability": "nonpayable",
      "type": "constructor"
    },
    {
      "constant": true,
      "inputs": [],
      "name": "candidateCount",
      "outputs": [
        {
          "internalType": "uint256",
          "name": "",
          "type": "uint256"
        }
      ],
      "payable": false,
      "stateMutability": "view",
      "type": "function"
    },
    {
      "constant": false,
      "inputs": [
        {
          "internalType": "string",
          "name": "_name",
          "type": "string"
        },
        {
          "internalType": "string",
          "name": "_party",
          "type": "string"
        }
      ],
      "name": "addCandidate",
      "outputs": [],
      "payable": false,
      "stateMutability": "nonpayable",
      "type": "function"
    },
    {
      "constant": true,
      "inputs": [
        {
          "internalType": "uint256",
          "name": "_candidateId",
          "type": "uint256"
        }
      ],
      "name": "getCandidate",
      "outputs": [
        {
          "internalType": "string",
          "name": "_candidateName",
          "type": "string"
        },
        {
          "internalType": "string",
          "name": "_partyName",
          "type": "string"
        },
        {
          "internalType": "uint256",
          "name": "_voteCount",
          "type": "uint256"
        }
      ],
      "payable": false,
      "stateMutability": "view",
      "type": "function"
    },
    {
      "constant": false,
      "inputs": [
        {
          "internalType": "uint256",
          "name": "_candidateId",
          "type": "uint256"
        }
      ],
      "name": "vote",
      "outputs": [],
      "payable": false,
      "stateMutability": "nonpayable",
      "type": "function"
    },
    {
      "constant": true,
      "inputs": [],
      "name": "doneVoting",
      "outputs": [
        {
          "internalType": "bool",
          "name": "_voted",
          "type": "bool"
        }
      ],
      "payable": false,
      "stateMutability": "view",
      "type": "function"
    }
  ],
  "bytecode": "0x608060405234801561001057600080fd5b50336000806101000a81548173ffffffffffffffffffffffffffffffffffffffff021916908373ffffffffffffffffffffffffffffffffffffffff16021790555060006001819055506100d36040518060400160405280600481526020017f4e4f5441000000000000000000000000000000000000000000000000000000008152506040518060400160405280600481526020017f4e4f54410000000000000000000000000000000000000000000000000000000081525061015160201b60201c565b6001600260008060009054906101000a900473ffffffffffffffffffffffffffffffffffffffff1673ffffffffffffffffffffffffffffffffffffffff1673ffffffffffffffffffffffffffffffffffffffff16815260200190815260200160002060006101000a81548160ff021916908315150217905550610358565b6000809054906101000a900473ffffffffffffffffffffffffffffffffffffffff1673ffffffffffffffffffffffffffffffffffffffff163373ffffffffffffffffffffffffffffffffffffffff1614610213576040517f08c379a000000000000000000000000000000000000000000000000000000000815260040180806020018281038252601f8152602001807f4f6e6c792061646d696e2068617320746869732070726976696c65676521210081525060200191505060405180910390fd5b6001600081548092919060010191905055506040518060800160405280600154815260200183815260200182815260200160008152506003600060015481526020019081526020016000206000820151816000015560208201518160010190805190602001906102849291906102b3565b5060408201518160020190805190602001906102a19291906102b3565b50606082015181600301559050505050565b828054600181600116156101000203166002900490600052602060002090601f016020900481019282601f106102f457805160ff1916838001178555610322565b82800160010185558215610322579182015b82811115610321578251825591602001919060010190610306565b5b50905061032f9190610333565b5090565b61035591905b80821115610351576000816000905550600101610339565b5090565b90565b610a64806103676000396000f3fe608060405234801561001057600080fd5b50600436106100575760003560e01c80630121b93f1461005c57806326541b561461008a57806335b8e820146101dc5780634491c0db146102f6578063a9a981a314610318575b600080fd5b6100886004803603602081101561007257600080fd5b8101908080359060200190929190505050610336565b005b6101da600480360360408110156100a057600080fd5b81019080803590602001906401000000008111156100bd57600080fd5b8201836020820111156100cf57600080fd5b803590602001918460018302840111640100000000831117156100f157600080fd5b91908080601f016020809104026020016040519081016040528093929190818152602001838380828437600081840152601f19601f8201169050808301925050505050505091929192908035906020019064010000000081111561015457600080fd5b82018360208201111561016657600080fd5b8035906020019184600183028401116401000000008311171561018857600080fd5b91908080601f016020809104026020016040519081016040528093929190818152602001838380828437600081840152601f19601f8201169050808301925050505050505091929192905050506105a1565b005b610208600480360360208110156101f257600080fd5b8101908080359060200190929190505050610703565b604051808060200180602001848152602001838103835286818151815260200191508051906020019080838360005b83811015610252578082015181840152602081019050610237565b50505050905090810190601f16801561027f5780820380516001836020036101000a031916815260200191505b50838103825285818151815260200191508051906020019080838360005b838110156102b857808201518184015260208101905061029d565b50505050905090810190601f1680156102e55780820380516001836020036101000a031916815260200191505b509550505050505060405180910390f35b6102fe61090d565b604051808215151515815260200191505060405180910390f35b610320610961565b6040518082815260200191505060405180910390f35b6000809054906101000a900473ffffffffffffffffffffffffffffffffffffffff1673ffffffffffffffffffffffffffffffffffffffff163373ffffffffffffffffffffffffffffffffffffffff1614156103dc576040517f08c379a0000000000000000000000000000000000000000000000000000000008152600401808060200182810382526023815260200180610a0d6023913960400191505060405180910390fd5b600260003373ffffffffffffffffffffffffffffffffffffffff1673ffffffffffffffffffffffffffffffffffffffff16815260200190815260200160002060009054906101000a900460ff161561049c576040517f08c379a00000000000000000000000000000000000000000000000000000000081526004018080602001828103825260188152602001807f55736572206861766520766f746564206265666f72652121000000000000000081525060200191505060405180910390fd5b6000811180156104ae57506001548111155b610520576040517f08c379a00000000000000000000000000000000000000000000000000000000081526004018080602001828103825260118152602001807f496e76616c69642063616e64696461746500000000000000000000000000000081525060200191505060405180910390fd5b6001600260003373ffffffffffffffffffffffffffffffffffffffff1673ffffffffffffffffffffffffffffffffffffffff16815260200190815260200160002060006101000a81548160ff021916908315150217905550600360008281526020019081526020016000206003016000815480929190600101919050555050565b6000809054906101000a900473ffffffffffffffffffffffffffffffffffffffff1673ffffffffffffffffffffffffffffffffffffffff163373ffffffffffffffffffffffffffffffffffffffff1614610663576040517f08c379a000000000000000000000000000000000000000000000000000000000815260040180806020018281038252601f8152602001807f4f6e6c792061646d696e2068617320746869732070726976696c65676521210081525060200191505060405180910390fd5b6001600081548092919060010191905055506040518060800160405280600154815260200183815260200182815260200160008152506003600060015481526020019081526020016000206000820151816000015560208201518160010190805190602001906106d4929190610967565b5060408201518160020190805190602001906106f1929190610967565b50606082015181600301559050505050565b6060806000808411801561071957506001548411155b61078b576040517f08c379a00000000000000000000000000000000000000000000000000000000081526004018080602001828103825260118152602001807f496e76616c69642063616e64696461746500000000000000000000000000000081525060200191505060405180910390fd5b600360008581526020019081526020016000206001018054600181600116156101000203166002900480601f0160208091040260200160405190810160405280929190818152602001828054600181600116156101000203166002900480156108355780601f1061080a57610100808354040283529160200191610835565b820191906000526020600020905b81548152906001019060200180831161081857829003601f168201915b50505050509250600360008581526020019081526020016000206002018054600181600116156101000203166002900480601f0160208091040260200160405190810160405280929190818152602001828054600181600116156101000203166002900480156108e65780601f106108bb576101008083540402835291602001916108e6565b820191906000526020600020905b8154815290600101906020018083116108c957829003601f168201915b50505050509150600360008581526020019081526020016000206003015490509193909250565b6000600260003373ffffffffffffffffffffffffffffffffffffffff1673ffffffffffffffffffffffffffffffffffffffff16815260200190815260200160002060009054906101000a900460ff16905090565b60015481565b828054600181600116156101000203166002900490600052602060002090601f016020900481019282601f106109a857805160ff19168380011785556109d6565b828001600101855582156109d6579182015b828111156109d55782518255916020019190600101906109ba565b5b5090506109e391906109e7565b5090565b610a0991905b80821115610a055760008160009055506001016109ed565b5090565b9056fe41646d696e20646f65736e7420686176652074686520726967687420746f20766f7465a265627a7a72315820eea630bbcc9f598a93d0bc55d060f7687790020fa5213f062794ad238c4de1bf64736f6c63430005100032",
  "source": "pragma solidity >=0.4.2;\r\n\r\ncontract Election {\r\n    struct Candidate {\r\n        uint256 candidateId;\r\n        string candidateName;\r\n        string partyName;\r\n        uint256 voteCount;\r\n    }\r\n\r\n    address admin;\r\n\r\n    uint256 public candidateCount;\r\n\r\n    mapping(address => bool) hasVoted;\r\n    mapping(uint256 => Candidate) candidates;\r\n\r\n    constructor() public {\r\n        admin = msg.sender;\r\n        candidateCount = 0;\r\n        addCandidate(\"NOTA\", \"NOTA\");\r\n        hasVoted[admin] = true;\r\n    }\r\n\r\n    function addCandidate(string memory _name, string memory _party) public {\r\n        require(msg.sender == admin, \"Only admin has this privilege!!\");\r\n        candidateCount++;\r\n        candidates[candidateCount] = Candidate(\r\n            candidateCount,\r\n            _name,\r\n            _party,\r\n            0\r\n        );\r\n    }\r\n\r\n    function getCandidate(uint256 _candidateId)\r\n        public\r\n        view\r\n        returns (\r\n            string memory _candidateName,\r\n            string memory _partyName,\r\n            uint256 _voteCount\r\n        )\r\n    {\r\n        require(\r\n            _candidateId > 0 && _candidateId <= candidateCount,\r\n            \"Invalid candidate\"\r\n        );\r\n        _candidateName = candidates[_candidateId].candidateName;\r\n        _partyName = candidates[_candidateId].partyName;\r\n        _voteCount = candidates[_candidateId].voteCount;\r\n    }\r\n\r\n    function vote(uint256 _candidateId) public {\r\n        require(msg.sender != admin, \"Admin doesnt have the right to vote\");\r\n        require(!hasVoted[msg.sender], \"User have voted before!!\");\r\n        require(\r\n            _candidateId > 0 && _candidateId <= candidateCount,\r\n            \"Invalid candidate\"\r\n        );\r\n        hasVoted[msg.sender] = true;\r\n        candidates[_candidateId].voteCount++;\r\n    }\r\n\r\n    function doneVoting() public view returns (bool _voted) {\r\n        _voted = hasVoted[msg.sender];\r\n    }\r\n}\r\n",
  "sourcePath": "F:\\Projects\\ISA_Project\\Implementation\\Temp\\contracts\\Election.sol",
  "compiler": {
    "name": "solc",
    "version": "0.5.16+commit.9c3226ce.Emscripten.clang"
  },
  "schemaVersion": "3.4.3",
  "updatedAt": "2021-11-08T17:20:52.059Z",
  "networkType": "ethereum",
  "devdoc": {
    "methods": {}
  },
  "userdoc": {
    "methods": {}
  }
}